:020000040800F2
:1000000037110020130101803715024013058501C7
:100010008325050093034003B3E575002320B50055
:10002000371501401305054083250500B703F1FF8F
:100030009383F3FFB3F57500B703030093830300C5
:10004000B3E575002320B5003715014013050541C0
:100050008325050093030001B3E575002320B50057
:10006000EF00800237150140130505418325050087
:10007000B703100093830300B3E575002320B50098
:10008000EF0080006FF05FFC37831E00130303480E
:0C0090001303F3FFE31E03FE6780000073
:00000001FF
